:020000040800F2
:10000000284E00205D020008171700089915000807
:1000100015170008B90300081B1C000800000000A9
:100020000000000000000000000000009D0100082A
:10003000BB03000800000000F9010008B117000828
:10004000770200087702000877020008A517000869
:10005000770200087702000877020008770200089C
:10006000770200087702000877020008770200088C
:10007000770200087702000877020008770200087C
:10008000770200087702000877020008770200086C
:10009000770200087702000877020008770200085C
:1000A000770200087702000877020008770200084C
:1000B000770200087702000877020008770200083C
:1000C000770200087702000877020008770200082C
:1000D000770200087702000877020008770200081C
:1000E000770200087702000877020008770200080C
:1000F00077020008770200087702000877020008FC
:1001000077020008770200087702000877020008EB
:1001100077020008770200086919000877020008D2
:1001200077020008770200087702000877020008CB
:1001300077020008770200087702000877020008BB
:1001400077020008770200087702000877020008AB
:10015000770200087702000877020008770200089B
:10016000770200087702000877020008770200088B
:1001700077020008770200087702000800000000FC
:100180007702000877020008DFF80CD000F002F9CF
:1001900000480047E91D0008284E00202C4B196834
:1001A0000868B0E8F04F80F30988BFF36F8F4FF015
:1001B000000080F3118870470000000008480068C4
:1001C000006880F308884FF0000080F3148862B65E
:1001D00061B6BFF34F8FBFF36F8F00DF00BF00BF6B
:1001E00008ED00E0DFF80C00016841F470010160E7
:1001F000704700BF88ED00E0EFF30980BFF36F8F19
:10020000134B1A681EF0100F08BF20ED108A20E96A
:10021000F04F106009B44FF0500080F31188BFF325
:100220004F8FBFF36F8F02F0F7FC4FF0000080F3A9
:10023000118809BC19680868B0E8F04F1EF0100F6B
:1002400008BFB0EC108A80F30988BFF36F8F704746
:100250001C000020EFF3058070470000064880472F
:1002600006480047FEE7FEE7FEE7FEE7FEE7FEE79B
:10027000FEE7FEE7FEE7FEE76518000889010008D3
:100280002DE9F05F0546002092469B4688460646CB
:10029000814640241BE0284641464746224600F05E
:1002A00069F853465A46C01A914110D31146184670
:1002B000224600F050F82D1A67EB01084F462246FF
:1002C0000120002100F047F817EB00094E41201EE5
:1002D000A4F10104DFDC484631462A464346BDE826
:1002E000F09F40EA01039B0703D009E008C9121FF1
:1002F00008C0042AFAD203E011F8013B00F8013BE0
:10030000521EF9D27047D2B201E000F8012B491E0B
:10031000FBD270470022F6E710B513460A460446A2
:100320001946FFF7F0FF204610BD30B50B460146D9
:1003300000202022012409E021FA02F59D4205D384
:1003400003FA02F5491B04FA02F52844151EA2F12E
:100350000102F1DC30BD202A04DB203A00FA02F170
:10036000002070479140C2F1200320FA03F31943A3
:1003700090407047202A04DB203A21FA02F0002145
:10038000704721FA02F3D040C2F1200291400843A5
:1003900019467047064C074D06E0E06840F001033F
:1003A00094E8070098471034AC42F6D3FFF7F0FE0C
:1003B0005437000874370008FEE7704772B6FEE74E
:1003C0002DE9F84FDFF8BCA10022012503264FF0EC
:1003D0000F090AF1040BAAF1040E00BF0B6805FA1D
:1003E00002F42340A34270D10F7907F00307012FD5
:1003F00001D0022F16D187684FEA420806FA08FC9E
:1004000027EA0C07D1F80CC00CFA08FC4CEA070CE0
:10041000C0F808C04768A7430C79C4F3001494409F
:100420003C4344600C79E443A4070AD0C4684FEA13
:10043000420C06FA0CF7BC438F6807FA0CF7274307
:10044000C7600C7904F00304022C12D1D40800EB2D
:10045000840CDCF820405707FF0E09FA07F824EA5D
:100460000804D1F8108008FA07F848EA0408CCF824
:10047000208004684FEA420C06FA0CF7BC430F795F
:1004800007F0030707FA0CF7274307604C6814F4DA
:10049000403F70D03C4C276847F480472760246871
:1004A00022F0030704F480440094384C07EB040C5A
:1004B000DCF8084897074FEA177809FA08F7BC43B1
:1004C000334FB84202D1002724E054E0314FB84204
:1004D00001D101271EE0304FB84201D1022719E0B7
:1004E0002E4FB84201D1032714E02D4FB84201D15D
:1004F00004270FE02B4FB84201D105270AE02A4F0D
:10050000B84201D1062705E0284FB84201D107279C
:1005100000E0082707FA08F72743CCF80878DAF84C
:1005200000405746D1F804C09C435FEACC2C00D56C
:100530001C433C60DBF800405F46D1F804C09C439C
:100540005FEA8C2C00D51C433C60DEF80040774607
:10055000D1F804C09C435FEA8C3C00D51C433C604E
:10056000084F083F3C68D1F804C09C435FEACC3C8C
:1005700000D51C433C60521C102AFFF42FAFBDE88D
:10058000F88F0000083C0140443802400030014030
:10059000000002400004024000080240000C02403B
:1005A000001002400014024000180240001C0240EB
:1005B0000069084000D001207047000001488068B1
:1005C000704700000C000020024881680278114446
:1005D000816070470C0000200B4810B5016841F4A1
:1005E00000710160016841F480610160016841F4BB
:1005F00080710160032000F09FF80F2000F006F8E2
:1006000000F050F8002010BD003C024030B5054617
:100610001F4887B00024016841F0100101600068A4
:1006200006A900F01000009001A800F0CFF904988E
:10063000A8B100F0EBF940001649174AB0FBF1F100
:100640001648491E026040F2E732C0E90324C0E9BF
:100650000114846100F0D2FD040003D015E000F025
:10066000D5F9E9E70D4800F0F7FD04000DD136207B
:1006700000F034F8102D07D200222946362000F071
:100680003BF80748056000E0012407B0204630BD74
:100690004038024040420F00001000400801002096
:1006A000100000200C4882B0016841F480410160D4
:1006B000006800F4804000900748001F016841F086
:1006C000805101600068002200F0805000900F21EE
:1006D000901E02B000F010B844380240002809DB38
:1006E00000F01F02012191404009800000F1E0204C
:1006F000C0F8001170470000F0B40E4B1B680C46A8
:10070000C3F30223C3F10705042D00D90425191DE5
:10071000072901D2002300E0DB1E012606FA05F1BD
:10072000491E214099409E40761E16403143F0BC40
:1007300001F084BA0CED00E0064900F007020868F9
:100740004FF6FF03184040EA0220034A10430860B6
:10075000704700000CED00E00000FA052DE9F843B9
:10076000054600684FF00109C1074FF0000601D1AE
:10077000400727D5DFF80C81C8F86860FFF71EFF37
:100780000746414C05E000BFFFF718FFC01B0228D9
:1007900057D820680001F7D468688101287A41EAB7
:1007A0000070394984310860C8F86890FFF706FF87
:1007B000074604E0FFF702FFC01B022841D820686B
:1007C0000001F7D52878800752D52F4840300168BE
:1007D00041F08051016000682C4C00F08050009086
:1007E000206840F480702060FFF7E8FE074604E0D0
:1007F000FFF7E4FEC01B022823D82068C005F7D508
:10080000214C7034206810F4407020D0A98901F484
:10081000407181421BD020681D4920F44070C1F80E
:1008200000900E6020602068C00710D0FFF7C6FE61
:10083000064641F2883707E0FFF7C0FE801BB8424A
:1008400002D90320BDE8F88320688007F4D5E96861
:100850000D48C1F301220830032A0BD0016821F4AE
:10086000F81101602068A989C1F30B0108432060D9
:100870000020E7E70268074B22F4F81219400A4308
:100880000260EFE70000474200380240007000407D
:10089000400E4742FFFCFF0F2DE9F0470E460500D2
:1008A00065D0DFF81481D8F80000F7B200F0070037
:1008B000B04207D288F80070D8F8000000F00700B6
:1008C000B04254D128683D4C810712D5400703D56A
:1008D000206840F4E05020602878000703D52068A5
:1008E00040F4604020602068A96820F0F0000843D0
:1008F00020602878C0072DD0304968680839012861
:1009000012D0022813D0032811D0096889070029C2
:100910002DDA216821F0030101432160FFF74EFE2B
:10092000814641F2883A0EE009688903EFE70968D9
:100930008901ECE7FFF742FEA0EB0901514502D91E
:100940000320BDE8F0872068696800F00C00B0EB78
:10095000810FEFD1D8F80010404601F00701B142F5
:1009600007D90770006800F00700B04201D00120ED
:10097000E7E72878400705D52068E96820F4E050CB
:10098000084320602878000706D52068296920F4EC
:10099000604040EAC100206000F058F82168084A31
:1009A000C1F30311515CC84006490860064800685D
:1009B000FFF72CFE0020C4E7003C0240083802404C
:1009C0001437000818000020100000200F220260D9
:1009D0000C4A136803F003034360136803F0F00349
:1009E0008360136803F4E053C36012684FF4E0536C
:1009F00003EAD20202610448006800F007000860C0
:100A00007047000008380240003C02400448054995
:100A100000680968044AC1F38221515CC8407047EC
:100A2000180000200838024024370008044805490F
:100A300000680968044AC1F34231515CC8407047FC
:100A4000180000200838024024370008154810B567
:100A5000006810F00C02144813D04110042A0FD083
:100A6000082A0ED10F4C241F2268236802F03F028F
:100A70005B0207D52068C0F38810A0FB010106E0E7
:100A8000084610BD2168C1F38811A1FB00010023B5
:100A9000FFF7F6FB2168C1F30141491C4900B0FB97
:100AA000F1F010BD083802400024F4002DE9F84FA1
:100AB00004006ED02078DFF84C93C007A9F104053C
:100AC0004AD009F104000168C1F38101012908D06D
:100AD0000068C0F3810002280AD1D9F80000400262
:100AE00006D52868800337D560680028E1D033E058
:100AF0006068B0F5803F10D0B0F5A02F286810D006
:100B000020F480302860286820F480202860606805
:100B1000A8B1FFF753FD06460DE0286840F4803089
:100B2000F4E740F480202860F7E700BFFFF746FDB8
:100B3000801B642873D828688003F7D50CE0FFF782
:100B40003DFD064605E000BFFFF738FD801B642829
:100B5000F0D828688003F7D42078DFF8AC828007CB
:100B60004FF0000A3ED5A748001D016811F00C0F98
:100B700008D00068C0F3810002280BD1D9F800002A
:100B8000400207D42868800716D5E068012800D104
:100B900012E033E1E068B8B10120C8F80000FFF7C7
:100BA0000DFD064605E000BFFFF708FD801B02288B
:100BB000C0D828688007F7D52868216920F0F80098
:100BC00040EAC10028600DE0C8F800A0FFF7F6FC7D
:100BD000064604E0FFF7F2FC801B02281FD82868B5
:100BE0008007F7D42078000722D5864F87486169AF
:100BF000703771B101210160FFF7E0FC064604E0A7
:100C0000FFF7DCFC801B022809D838688007F7D57D
:100C10000EE0C0F800A0FFF7D1FC064605E082E038
:100C2000FFF7CCFC801B02287DD838688007F7D4FA
:100C30002078400768D5DFF8CCB100270BF13C0BDA
:100C4000DBF80000C0000BD4DBF8001041F080514D
:100C5000CBF80010DBF80000012700F08050009076
:100C60006B4E3068C00510D4306840F4807030603E
:100C7000FFF7A4FC009005E0FFF7A0FC0099401AE4
:100C8000022850D83068C005F6D55E4EA0686C3694
:100C900001280FD00528306810D020F00100306006
:100CA000306820F004003060A068B8B1FFF786FC1F
:100CB00000900FE0306840F00100F4E740F00400DD
:100CC0003060F7E7FFF77AFC0099411A41F288306B
:100CD000814266D830688007F4D50EE0FFF76EFCDD
:100CE000009007E0FFF76AFC0099411A41F2883052
:100CF000814256D830688007F4D42FB1DBF8001059
:100D000021F08051CBF80010A069C8B33D49091DFE
:100D10000968C1F3810102294AD00228504607D050
:100D2000C8F8600000E03CE0FFF748FC04463BE008
:100D30004746C8F86000FFF741FC064605E000BFE3
:100D4000FFF73CFC801B02282BD828688001F7D4D1
:100D5000D4E907010843A16A2E4A490802EB014180
:100D6000626A41EA8211084394F82C1040EA01615A
:100D7000C9F8001001203866FFF720FC044606E0A1
:100D80003EE000BFFFF71AFC001B022809D82868C4
:100D90008001F7D534E000BFFFF710FC001B0228EC
:100DA00002D90320BDE8F88F28688001F4D427E039
:100DB0000128F7D0D9F80000E26900F480019142DF
:100DC0001CD1226A00F03F01914217D147F6C07151
:100DD000626A0140B1EB821F10D1A26A4FF0FF336B
:100DE00000F4403103EB5202B1EB024F06D194F80C
:100DF0002C1000F07060B0EB016F01D00120D1E742
:100E00000020CFE70438024000004742800E4742EE
:100E1000007000400000FFFF2DE9F84389463D497E
:100E20004FF4FA4C4FF47A730F68B7FBFCF1594357
:100E30000091017F012965D00125057702214177C5
:100E40000368CA21596203685321596201688B689B
:100E50004FF0FF045FEA43584FF000034FF00306E2
:100E60000CD500BFDDF80080B8F10108CDF8008096
:100E70004AD0D1F80C805FEA4878F3D4D1F80880E2
:100E800028F48068C1F808800168D1F80C8008F067
:100E9000800868F49068C1F80C80B7FBFCF14FF44F
:100EA0007A77794300910168009F7F1E00972BD0CD
:100EB000CF687F07F8D58E6826F007068E60016838
:100EC0008E6816438E600268C2F8149012490A6850
:100ED00042F480020A60104908310A6842F4800234
:100EE0000A6001688A6842F480428A6001688A6800
:100EF00042F480628A6001684C6245770377002083
:100F0000BDE8F8830220FBE74C62467703770320B5
:100F1000F6E7000018000020003C01401CB5092045
:100F2000ADF800000948002301AA6946806802F074
:100F30007DF80198002807D005494FF080500860DF
:100F4000BFF34F8FBFF36F8F1CBD00000000002068
:100F500004ED00E010B50A4904464FF48000086033
:100F60002068C168490508D5C16801F0800161F4B5
:100F70009061C1602046FFF7D1FF0120607710BD6E
:100F8000143C014010B5040002D0607F10B106E0AF
:100F9000012010BD00202077204600F041F80220FB
:100FA00060772068C168C943C90632D5CA21416249
:100FB000216853204862204600F0BAFB20BB20681D
:100FC0008168164A11408160216888686268104310
:100FD000D4E904231A43104388602168E06808615B
:100FE00020680169228941EA02410161204600F03E
:100FF000C3FB48B921680A6C22F480220A64216884
:101000000A6CA3691A430A642268FF21516208B17D
:1010100010BD00200121617710BD0000BFFF8FFFD0
:101020001FB50021009101910291039100680C49C4
:10103000884214D102200090C00103906846FFF757
:101040008DFB08B1FFF7BAF90649012008600022BC
:1010500007210320FFF750FB0320FFF73FFB1FBDD5
:10106000002800403C0E474270B50446007F0B4606
:10107000012819D00126267702206077B2B198782E
:10108000D97840EA014558781978000240EA4130A1
:1010900005432168CA2048622168532048622046DF
:1010A00000F046FBD0B122E0022070BD5878C106A6
:1010B00003D500F0EF000A305870D87800F02CFB10
:1010C0000204587800F028FB42EA0022987800F0E9
:1010D00023FB0243187842EA4035DAE70748054027
:1010E00020684560204600F047FB00B9667722681B
:1010F000FF2151620021217770BD00003FFFFF00FA
:101100002DE9F0410446007F0D46012823D04FF021
:10111000010884F81C80022060772068002780681E
:101120004FEA4060D2B1002800DBEF70A878297840
:1011300040EA01466878E978000240EA81500643B7
:101140002168CA204862216853204862204600F086
:10115000EFFAB8B12CE00220BDE8F081002800DBF6
:10116000EF70287800F0D8FA0204687800F0D4FA1A
:1011700042EA0022A87800F0CFFA0243E87842EA77
:101180008056DDE70D4806402068066020688168CB
:1011900021F480218160D5E90301084321688A6830
:1011A00010438860204600F0E7FA08B984F81D80F3
:1011B0002268FF2151622777CEE700007F7F7F0002
:1011C00070B504460B482168C860FFF7F7F905467B
:1011D0004FF47A7607E000BFFFF7F0F9401BB0420A
:1011E00001D9032070BD2068C0688006F4D50020B6
:1011F00070BD00005F7F01007047704710B50400AC
:1012000003D094F83D0010B107E0012010BD00208C
:1012100084F83C00204600F01EF8022084F83D00CF
:10122000211D206800F0A6FB012084F8460084F808
:101230003E0084F83F0084F8400084F8410084F8C0
:10124000420084F8430084F8440084F8450084F8A0
:101250003D00002010BD704790F83D10012901D0DD
:1012600001207047022180F83D100168CA6842F0F1
:101270000102CA6000681149884214D0B0F1804F61
:1012800011D00F4988420ED00E4988420BD00E492A
:10129000884208D00D49884205D00D49884202D0C5
:1012A0000C49884204D1816801F00701062903D066
:1012B000016841F001010160002070470000014019
:1012C0000004004000080040000C00400004014001
:1012D000004001400018004070472DE9F0410446ED
:1012E0000068C66805694FF00007A90713D5B10764
:1012F00011D5F91E016101202077206880698007DF
:10130000204602D0FFF7E8FF04E000F07EF8204618
:1013100000F07CF82777680716D5700714D5216888
:101320006FF004000861022020772068806910F4C3
:10133000407F204602D0FFF7CFFF04E000F065F8C1
:10134000204600F063F82777280715D5300713D516
:1013500021686FF008000861042020772068C069C8
:101360008007204602D0FFF7B7FF04E000F04DF8F9
:10137000204600F04BF82777E80616D5F00614D57E
:1013800021686FF010000861082020772068C0698C
:1013900010F4407F204602D0FFF79EFF04E000F0EB
:1013A00034F8204600F032F82777E80708D0F00735
:1013B00006D021686FF001000861204600F028F88F
:1013C000280608D5300606D521686FF08000086130
:1013D0002046FFF711FF680608D5700606D521687C
:1013E0006FF040000861204600F01CF8A8060AD5FE
:1013F000B00608D521686FF0200008612046BDE8DE
:10140000F041FFF7FABEBDE8F08170477047000079
:1014100000680349884201D1FFF7D6B87047000041
:1014200000100040704770B5040004D094F84100EB
:10143000002510B106E0012070BD84F84050204620
:1014400000F024F8242084F841002068C16821F4C9
:101450000051C160204600F021FB2068016921F4A1
:10146000904101612068416921F02A0141612068B1
:10147000C16841F40051C1606564202084F84100D6
:1014800084F842006563002070BD000010B586B08E
:10149000044614216846FEF73DFF1449206888423F
:1014A00021D113480021026842F010020260006856
:1014B00000F0100005900E481438026842F0010256
:1014C0000260006800F0010005904FF4C0600090D9
:1014D0000220CDE901010320039007200490694612
:1014E0000448FEF76DFF06B010BD0000001001407B
:1014F00044380240000002402DE9F843044690F8C9
:101500004100984616460D46202802D00220BDE82C
:10151000F88385B17EB100206064212084F8410009
:10152000FFF74CF8A6848146E684A0682027B0F532
:10153000805F02D003E00120E9E7206910B12E4668
:1015400000250EE000260CE08021204600F02CFB58
:10155000A8B9C6B116F8010B21684860E08C401E9E
:10156000E084E08C4B464FF00002CDF8008000286C
:10157000EAD14FF04001204600F016FB40B184F85C
:1015800041700320C3E735F8020BC0F30800E3E71E
:1015900084F841700020BAE7FEE7000010B50B4A5E
:1015A00002210A2000F06CFC094C084A0021A060CE
:1015B000483A084800F090FC044A2060243A002190
:1015C000054800F089FC606010BD0000FC36000892
:1015D00000000020E91800087518000800B587B061
:1015E00014216846FEF796FE16480021026842F074
:1015F00010020260026802F010020592026842F0D6
:1016000004020260026802F004020592026842F0DD
:1016100080020260026802F080020592026842F0D5
:1016200001020260006800F0010005901C20CDE975
:1016300000010120029069460348FEF7C1FE07B091
:1016400000BD0000303802400010024010B586B0E6
:1016500014216846FEF75EFE1F4800241D490594CC
:10166000C0E900147F218160FF21C0E903144461B7
:101670008461FFF787FC08B1FEF7A0FE8DF80040FB
:101680008DF801408DF8024003940122694612480A
:101690000494FFF735FD08B1FEF790FE01208DF8A8
:1016A00014008DF815008DF8160002468DF81740CD
:1016B00005A90948FFF7D8FC08B1FEF77FFE042210
:1016C00000210548FFF7A8FB002801D0FEF776FEB1
:1016D00006B010BD00280040A00000200C4810B546
:1016E0000A4901604FF4E1314160002181600C2220
:1016F000C160C0E904128161C161FFF794FE002856
:1017000003D0BDE81040FEF759BE10BD00100140E7
:10171000C0000020FEE7FEE7002102E00A38C0B268
:10172000491C0A28FAD2090740EA116070470000F4
:101730002DE9F041044600680025C168490618D427
:10174000C16841F08001C160FEF738FF06464FF4E2
:101750007A78042707E000BFFEF730FF801B404582
:1017600001D9677701252068C068400601D4002DA3
:10177000F2D02846BDE8F08170B504460068002527
:10178000C16821F08001C16020688068800606D4AD
:101790002046FFF715FD10B104206077012528468B
:1017A00070BD00000148FFF7D5BB0000A00000207D
:1017B00010B54FF0E020006901F0C6FD012803D00C
:1017C000BDE8104001F0D4BA10BD000030B593B0B0
:1017D00030216846FEF79EFD14210CA8FEF79AFD05
:1017E0001E480025016841F080510160006800F04A
:1017F000805011901A48016841F4804101600068EE
:10180000022400F480401190052000904FF48030B5
:101810000190012002908005CDE9064008AA04202D
:10182000A82182E813000B906846FFF73FF908B142
:1018300072B6FEE70CA90F2081E831004FF4A050EA
:101840000F904FF48050109005210CA8FFF724F85A
:10185000002801D072B6FEE713B030BD4038024018
:10186000007000400248016841F470010160704757
:1018700088ED00E008B500200E4CADF80000A0682F
:1018800000F0CFFF0646A06800F0DDFF05463222DB
:101890006946A06801F02AFC0128F0D1AAB2B1B2D1
:1018A000BDF8003004A000F0B9F9642000F0ADFAF2
:1018B000E5E70000000000206D7367436F756E74EC
:1018C0003A2025642C206672656553706163653A21
:1018D0002025642C206B65795F76616C75653A20F4
:1018E00025640D0A0000000008B500251C4C1D4EA3
:1018F000ADF8005003274FF002084FF001094FF4F4
:10190000967A00BFADF8005004212046FEF750FE45
:1019100008B9ADF8007008212046FEF749FE08B965
:10192000ADF8008010212046FEF742FE50B1BDF810
:10193000000090B1002332226946B06801F0C6FA77
:1019400018B106E0ADF80090F4E70021B06801F0AE
:1019500079FA504600F059FAD4E70A20FAE7000075
:1019600000100240000000200148FFF7B6BC000054
:1019700008010020F0B50268294C2A4D2A4E2B4F51
:101980002B4B4FF0804CA04209D0604507D0A842B5
:1019900005D0B04203D0B84201D0984204D122F021
:1019A000700E4A6842EA0E02A0421BD0604519D070
:1019B000A84217D0B04215D0B84213D0984211D0E7
:1019C0001C4DA8420ED01C4DA8420BD01B4DA84266
:1019D00008D01B4DA84205D01A4DA84202D01A4D7E
:1019E000A84203D122F44075CA682A434D6922F007
:1019F00080022A4302608A68C2620A688262A04248
:101A000001D0984201D10969016301214161016955
:101A1000C90703D0016921F001010161F0BD000097
:101A2000000001400004004000080040000C00409D
:101A300000040140004001400044014000480140D2
:101A400000180040001C00400020004001680C31DC
:101A500051E8002F22F4907241E80023002BF5D1C9
:101A60000168143151E8002F22F0010241E80023FF
:101A7000002BF5D1016B012909D101680C3151E826
:101A8000002F22F0100241E80023002BF5D1202185
:101A900080F84210002101637047000070B50446D1
:101AA00000680169E26821F4405111430161216934
:101AB000A068E26908436169114308432168CA6864
:101AC00049F20C639A430243CA6020684169A269E3
:101AD00021F440711143416131492068884202D0AC
:101AE0003049884202D1FEF7A1FF01E0FEF78EFFE8
:101AF000E2690023192164253226B2F5004F62689D
:101B000028D0A0FB0101930F9200FEF7B9FB01461C
:101B1000B0FBF5F06FF01802504301EB800006EBCC
:101B20000010B0FBF5F000F0F002B1FBF5F002EBB5
:101B30000012B1FBF5F06FF01803584301EB800081
:101B400006EB0010B0FBF5F000F00F002168104428
:101B5000886070BDA0FB010192185B41FEF790FB0D
:101B60000146B0FBF5F00201B1FBF5F06FF0180390
:101B7000584301EB800006EBC000B0FBF5F000F02D
:101B8000F80002EB4002B1FBF5F0584301EB800096
:101B900006EBC000B0FBF5F000F00700D6E7000050
:101BA00000100140001401402DE9F8439846174603
:101BB0000D460446089E24E0701C22D0FEF7FEFC71
:101BC000A0EB0800B0421AD8CEB12068C16849071E
:101BD00017D5802D15D0402D13D00168C9430907B2
:101BE0000FD401680025406800902046FFF72EFFC3
:101BF0000820606484F840500120BDE8F883032089
:101C0000FBE72068006835EA000004D00020B842F5
:101C1000D2D00020F1E70120F9E7FEE70FB4054B31
:101C200010B503A9044A029800F028F810BC5DF82A
:101C300014FB0000D11D00089C0000200907090EBC
:101C4000002804DB00F1E02080F80014704700F069
:101C50000F0000F1E02080F8141D704702E008C872
:101C6000121F08C1002AFAD170477047002001E016
:101C700001C1121F002AFBD1704700002DE9FF4F60
:101C800089B09B460446002506E025280BD05A461D
:101C90000B999047641C6D1C20780028F5D10DB07D
:101CA0002846BDE8F08F0027B8460122474900E0EA
:101CB000074314F8013F203B02FA03F00842F7D132
:101CC00020782E2819D114F8010F47F004072A288C
:101CD0000ED06FF02F022078A0F1300109290CD826
:101CE00008EB880102EB410100EB0108641CF2E7FC
:101CF0000A98641C50F8048B0A9020780028CED0F3
:101D0000642808D0692806D075281ED05A460B9939
:101D100090476D1C58E00A994FF00A0901C90A91D1
:101D2000002802DA40422D2102E0390504D52B219A
:101D30008DF82010012103E0F90704D02021F7E7F6
:101D40008A4608AE0DE00021FAE70A994FF00A0929
:101D500001C90A91F7E74946FEF7E7FA303106F87C
:101D6000011D0028F7D1ADEB060000F1200978072E
:101D700001D44FF00108C84502DDA8EB090000E0DE
:101D800000208046002706E008A85A46C05D0B994F
:101D900090476D1C7F1C5745F6DB04E030205A4607
:101DA0000B9990476D1CB8F10001A8F10108F5DC12
:101DB00005E016F8010B5A460B9990476D1CB9F1D6
:101DC0000001A9F10109F4DC641C65E709280100A0
:101DD00013B54FF0FF33012269460248FFF78CFB31
:101DE00000981CBDC0000020FEF7F6FBFFF7EEFCDC
:101DF000FFF7F4FBFFF772FCFFF728FC00F012F886
:101E0000FFF7CCFB00F020F8FEE710B5EFF30581FB
:101E100011B16FF0050403E0002408B100F048FEA2
:101E2000204610BDEFF3058010B16FF0050070473C
:101E30000448016811B14FF0FF3070470121016083
:101E4000002070476C00002010B5EFF3058010B142
:101E50006FF0050010BD08480168012902D04FF05D
:101E6000FF3010BD054A002182F8141D02210160D7
:101E700000F086FE002010BD6C0000200BE000E0AA
:101E8000F8B514464FF00005EFF3058212BB08B316
:101E900001B3A4B1D4E9023263B1502A1AD3226942
:101EA000C2B1676900FB01F6B74213D3009500F099
:101EB00096FF07E072B9226962B9626952B90022DD
:101EC00000F06CFF050005D00CB1216800E0002196
:101ED00000F0B8FD2846F8BD2DE9FF410B464FF054
:101EE0000005EFF30581039549BB40B38027182116
:101EF00000244AB3166806B1344696691EB13146CD
:101F0000761E382E02D21679F60703D0002004B0D0
:101F1000BDE8F081566906B1B708D2F808C0BCF137
:101F2000000F0DD0D5685C2D18D312693AB136B1C7
:101F30008DE806103A46214601F0DBF903900DE0EA
:101F4000D6685EB912694AB903AACDE90012BAB2DD
:101F5000214601F0A1F9012800D003950398D6E7A6
:101F60002DE9F041134C0F460546E6682068001D38
:101F700000F044FC681C07D137B12168BDE8F0418E
:101F80000D48091D00F0B0BC20683544B5424560DD
:101F9000216805D2A06BBDE8F041091D00F08CBCA2
:101FA000606B091D00F088FCA06A854200D2A56222
:101FB000BDE8F0811C000020400600202DE9F04122
:101FC000054600F09DFC2D4CA068401CA0602068D8
:101FD0002B4F10B1606930B32BE02560A068012859
:101FE00027D1002606EB860007EB800000F056FCA8
:101FF000761C382EF6D3234800F050FC21481430CC
:1020000000F04CFC1F48283000F048FC1D483C30D4
:1020100000F044FC1B48503000F040FC194860635D
:102020001430A06305E02068E96AC06A884200D8DD
:102030002560606A401C60626864E86A21698842C1
:1020400000D9206100EB800007EB8000291D00F023
:102050004BFC00F075FC606900280CD02068E96A30
:10206000C06A884207D208494FF080500860BFF329
:102070004F8FBFF36F8FBDE8F08100001C00002080
:1020800090010020F005002004ED00E038B500F0DC
:1020900037FC104C2068C8B90F4800F0FFFB0E4811
:1020A000143000F0FBFB0C48E060143020610A4B58
:1020B0000020F03B009003F1500210210A2000F0B4
:1020C0008EFE206010B105A100F0BCFCBDE83840D8
:1020D00000F036BC5800002044070020546D7251B7
:1020E0000000000030B4026C0B46002A0BD0C1681F
:1020F0001144C1608468A14201D30168C16030BC51
:102100001846FEF7EEB830BC70472DE9F041856BFC
:10211000174604460026026C82B1C7B1E068FEF79C
:10212000E0F8E168206C091AE1602268914202D26D
:10213000A168081AE060022F16D017E02068A8B93D
:10214000A06801F079F906460020A0600EE0606802
:10215000FEF7C7F8216C606808446060A168884297
:1021600004D32068606001E005B16D1E6D1CA5639D
:102170003046BDE8F08110B5044690F8590058B1DA
:1021800001280CD002280FD0502080F31188BFF313
:102190004F8FBFF36F8FFEE7206B00F0E5FB20460B
:1021A000BDE8104000F0E0BB10BD000010484FF447
:1021B0007051420706D0C01D0D4920F00700411A9A
:1021C000C1F570510B4A00230144C2E900030839EC
:1021D000183A21F0070111604B600B600B1AC0E93F
:1021E000001393604FF0004053605061704700004F
:1021F000240E002088000020144E154CA6F29C47A7
:102200004FF08058DFF84C9012E000BF00F078FBF0
:10221000F068C568281D00F0F1FAA068401EA060B3
:102220006068401E606000F08BFB2846FFF7A3FF4C
:1022300060680028EAD138680128F9D9C9F8008017
:10224000BFF34F8FBFF36F8FF2E700002C06002023
:102250001C00002004ED00E070B51D46049C51B147
:10226000C4F80020C4E90F010121204600F0EAFD76
:1022700084F84C5070BD2460F4E700002DE9F05F55
:102280008846DDE90B941546834691009A460A9EDE
:10229000A522206BFEF737F86FF00301206B01EBEE
:1022A0008501084420F00707780707D0502080F305
:1022B0001188BFF34F8FBFF36F8FFEE70025B8F192
:1022C000000F0FD05FF00000221818F8001082F8FD
:1022D000341018F8001011B1401C1028F4D384F801
:1022E000435001E084F83450382E00D33726E6629C
:1022F000C4E91365201D00F0DCFA04F1180000F0B9
:10230000D8FA2461C6F138006462A061656584F87A
:10231000585052465946384600F05AFA2060B9F1F2
:10232000000F01D0C9F80040BDE8F09F30B5114959
:1023300000E011460A688242FBD34B685C18844275
:1023400003D1406818444860084643681C1894420A
:1023500009D1084C183C2468A24209D052681A449A
:1023600042600A6812680260814200D0086030BD95
:102370000460F9E78800002070B5002441600B4D2F
:102380000061914206D8D11A8269914206D2011D9C
:10239000286907E09A4203D2994201D3012403E05D
:1023A000011DE86800F088FA204670BD5800002042
:1023B00010B5044600F0A4FAA06B28B15FF0000449
:1023C00000F0BEFA204610BD0124F9E730B589B00F
:1023D0003C4D6EE00498002806DADDE90601059A16
:1023E00090470498002864DB069C606910B1201DAA
:1023F00000F004FA03A800F0D7F8024604980A286F
:1024000057D2DFE800F00505052D334A05052D33C9
:1024100094F8280040F0010084F828000599A0698C
:10242000059B01442046FFF7A7FF68B3216A2046B9
:10243000884794F8280040073BD500200090059875
:10244000A169002342181946204601F0FFF8D8B9C7
:10245000502080F31188BFF34F8FBFF36F8FFEE7DB
:1024600014F8280F20F00100207022E094F82800D2
:1024700040F0010084F828000598A06128B1811877
:1024800013462046FFF778FF13E0502080F31188B1
:10249000BFF34F8FBFF36F8FFEE794F828008107DB
:1024A00003D4204600F060FA03E020F0010084F835
:1024B0002800002204A9286800F018FE002889D10D
:1024C00009B030BD580000202DE9FC410F460546FB
:1024D00000F09AFB01A800F067F80446019818B1D3
:1024E00001F022F8BDE8FC81254EAFB130690068EB
:1024F000D0B30027291B3A46306800F0B7FA01F044
:1025000013F80028EED11F494FF080500860BFF348
:102510004F8FBFF36F8FE5E7A542EBD801F004F8CA
:10252000F0682746C068C468201D00F067F994F879
:102530002800410719D5A0692B4641193A46204683
:10254000FFF71AFFA8B100200346014600902A4673
:10255000204601F07BF860B9502080F31188BFF36A
:102560004F8FBFF36F8FFEE707E020F0010084F884
:102570002800216A20468847B4E70127BAE700000F
:102580005800002004ED00E00648416B096829B1BD
:10259000416BC968C9684968816270474FF0FF3173
:1025A000FAE700001C00002070B5054600F0DAFED6
:1025B000064E0446B068844203D200F009F80120B8
:1025C00000E0002028602046B46070BD5800002064
:1025D000F8B5194D20E0C068C4680668201D00F0F9
:1025E0000DF9216A2046884794F82800400713D542
:1025F000A0693044B04206D924616060211DE868BA
:1026000000F05AF908E000200346014600903246E7
:10261000204601F01BF838B1E86801680029DAD1DA
:102620002969C5E90310F8BD502080F31188BFF374
:102630004F8FBFF36F8FFEE75800002008484068B7
:10264000401C4FF0500080F3118804D0BFF34F8F2F
:10265000BFF36F8FFEE7BFF34F8FBFF36F8FFEE7C0
:1026600090000020074CE068016841B1C06800217B
:10267000D0F80000FFF728FFFFF7A8FEF3E70121DD
:102680000020F7E7580000202DE9F041044600F053
:1026900037F994F9455004F1240609E0606A48B11D
:1026A000304600F009FF08B100F030FA6D1E6DB23F
:1026B000002DF3DC4FF0FF3684F8456000F040F960
:1026C00000F01EF994F9445004F1100709E0206964
:1026D00048B1384600F0F0FE08B100F017FA6D1E60
:1026E0006DB2002DF3DC84F84460BDE8F04100F0E9
:1026F00027B900002DE9F0410546002700F084FAD3
:10270000324E306808B9FFF751FD706905424ED16D
:10271000C5B3083568070ED005F00700C0F1080002
:102720000544680707D0502080F31188BFF34F8F0E
:10273000BFF36F8FFEE72DB37068854237D823480B
:10274000183001460C6801E020460C466168A94239
:1027500002D221680029F7D131688C4227D007685E
:102760002168016060680837411B10290FD9601982
:10277000420708D0502080F31188BFF34F8FBFF37A
:102780006F8FFEE713E041606560FFF7CFFD616882
:102790007068401A7060B268904200D2B060706990
:1027A00001430020C4E90001F068401CF06000F023
:1027B000BBFE780707D0502080F31188BFF34F8FFE
:1027C000BFF36F8FFEE73846BDE8F0817000002050
:1027D00010B5031F4FF080741C601B1F21F0010116
:1027E0001960191F044B0B6014390A60091F6FF040
:1027F000020244380A6010BD3D260008D0E90132CB
:1028000001699A60D0E901235A604A68824201D185
:1028100082684A60002202610868401E08600868F9
:10282000704710B5040006D000F06AF8A46B00F001
:1028300087F8204610BD502080F31188BFF34F8FDA
:10284000BFF36F8FFEE710B5040008D000F058F812
:10285000D4E90E10441A00F073F8204610BD502041
:1028600080F31188BFF34F8FBFF36F8FFEE7000037
:10287000034B036003F15C00086080201060704728
:102880006C070020044B036003F15C0008604FF408
:102890008070106070470000C809002000F1080136
:1028A0004FF0FF32C0E90112C160016100210160F7
:1028B000704700210161704730B50B685A1C02D087
:1028C00000F1080202E0026904E02246546825682B
:1028D0009D42FAD953684B6099608A6051600861E3
:1028E0000168491C016030BD42684A6093688B6092
:1028F00093685960916008610168491C01607047E4
:10290000502080F31188BFF34F8FBFF36F8F0A49B8
:102910004868401C486001280CD10848006810F045
:10292000FF0F07D0502080F31188BFF34F8FBFF304
:102930006F8FFEE7704700009000002004ED00E07C
:102940000849486828B1401E486001D180F31188C9
:102950007047502080F31188BFF34F8FBFF36F8F04
:10296000FEE700009000002070B500282AD0164D28
:10297000A0F1080460686969084207D1502080F31B
:102980001188BFF34F8FBFF36F8FFEE722683AB114
:10299000502080F31188BFF34F8FBFF36F8FFEE796
:1029A0008843606000F030F96068696808446860D6
:1029B0002046FFF7BBFC2869401C2861BDE8704039
:1029C00000F0B2BD70BD0000700000204FF0E020AC
:1029D00000210161816105494FF47A720968B1FBF8
:1029E000F2F1491E41610721016170471800002082
:1029F00010B5FDF72FFC114910280ED300F1E0208F
:102A000090F8F0030A78904207D2502080F31188A2
:102A1000BFF34F8FBFF36F8FFEE7094800688968E7
:102A200000F4E060884207D9502080F31188BFF39A
:102A30004F8FBFF36F8FFEE710BD000090000020A6
:102A40000CED00E010B5084B002200BF53F83240F7
:102A50001CB1521C082AF9D310BD43F8321003EB05
:102A6000C201486010BD00005001002070B515463D
:102A70000E460446FFF744FF94F944100020491C19
:102A800001D184F8440094F94510491C01D184F81F
:102A90004500FFF755FFA06B28B92A46314604F1DF
:102AA000240000F051F82046BDE87040FFF7ECBD6F
:102AB00010B5020014D00F48006B38B1502080F3DD
:102AC0001188BFF34F8FBFF36F8FFEE700F09CF8C4
:102AD00000211046FFF744FA00F026FD002807D138
:102AE00005494FF080500860BFF34F8FBFF36F8FE1
:102AF00010BD00001C00002004ED00E002490A6A3D
:102B00000260C968416070471C0000200149012033
:102B1000C86170471C00002010B50C4650B109492F
:102B200009681831FFF7C8FE2046BDE810400121B2
:102B3000FFF716BA502080F31188BFF34F8FBFF311
:102B40006F8FFEE71C00002070B514460D4668B17B
:102B50000A4909681831FFF7C7FE0CB14FF0FF357D
:102B600021462846BDE87040FFF7FAB9502080F3AF
:102B70001188BFF34F8FBFF36F8FFEE71C0000205B
:102B800030B587B00024039405AA04A903A80494CF
:102B9000FFF76EFEDDE903010094CDE9011000238B
:102BA00015A11748059A00F0A4FB164D0028E8620D
:102BB0001FD000F01BFD012809D0401C19D1502066
:102BC00080F31188BFF34F8FBFF36F8FFEE7502064
:102BD00080F31188BFF34F8FBFF36F8F4FF0FF303B
:102BE000A86201206861EC6007B0BDE8304000F0E9
:102BF00045B807B030BD000049444C450000000016
:102C0000F92100081C0000200248016B491C0163E7
:102C1000704700001C000020164810B5016B11B170
:102C20000121C16110BD0021C1610169124A01E0A9
:102C3000B9B1491E01EB810352F82330002BF7D0C4
:102C400001EB810302EB830202F1080453685B6825
:102C50005360A34201D15B685360DA68026001618E
:102C600010BD502080F31188BFF34F8FBFF36F8FDB
:102C7000FEE700001C000020900100201CB5374832
:102C80000168374A914207D1502080F31188BFF381
:102C90004F8FBFF36F8FFEE700683149491E8842AE
:102CA00007D1502080F31188BFF34F8FBFF36F8F90
:102CB000FEE72C4908780190FF20087008788DF80D
:102CC00000009DF800009DF8002000F0F000904208
:102CD00007D0502080F31188BFF34F8FBFF36F8F61
:102CE000FEE79DF80000204C00F050002070072007
:102CF000A06005E09DF8002052008DF80020401EE5
:102D00009DF800201206F5D4A060032807D05020BB
:102D100080F31188BFF34F8FBFF36F8FFEE74FF43F
:102D20004070A060019808700C482030016841F4A0
:102D300070010160016841F070410160FFF746FEDB
:102D400000206060FDF74EFA0848016841F04041FC
:102D50000160FDF733FA00201CBD000000ED00E02B
:102D600071C20F4100E400E09000002034EF00E069
:102D700010B5502080F31188BFF34F8FBFF36F8FD2
:102D800000F0F6FA18B104494FF0805008600020B6
:102D900080F3118810BD000004ED00E0F8B517467F
:102DA0000E46050013D005FB06F05030FFF7A2FCDD
:102DB00004000AD0002084F8460004F150023B468B
:102DC000314628460094FFF747FA2046F8BD5020C8
:102DD00080F31188BFF34F8FBFF36F8FFEE738B5D5
:102DE000049D18B153B1CAB181B120E0502080F3E5
:102DF0001188BFF34F8FBFF36F8FFEE7502080F332
:102E00001188BFF34F8FBFF36F8FFEE7502080F321
:102E10001188BFF34F8FBFF36F8FFEE739B150209A
:102E200080F31188BFF34F8FBFF36F8FFEE75024FD
:102E30001C46012384F846302B460094FFF70CFA19
:102E4000204638BD70B50D46040025D0FFF758FD6B
:102E5000D4E90F20216802FB0011A1600021A163C9
:102E6000216861600A46D4E90F01401E00FB012180
:102E7000E16021464FF0FF3001F8440F487004F143
:102E800010008DB1FFF70AFD04F12400FFF706FDE5
:102E9000FFF756FD012070BD502080F31188BFF36D
:102EA0004F8FBFF36F8FFEE721690029F0D000F04C
:102EB00003FB0028ECD004494FF080500860BFF3BA
:102EC0004F8FBFF36F8FE3E704ED00E02DE9FF477D
:102ED00082B01D468A464FF00008040003D0BAF1C4
:102EE000000F08D011E0502080F31188BFF34F8FFE
:102EF000BFF36F8FFEE7206C38B1502080F311884C
:102F0000BFF34F8FBFF36F8FFEE7022D0AD1E06B47
:102F1000012807D0502080F31188BFF34F8FBFF3F3
:102F20006F8FFEE700F010FA3F4F4FF000094FF0AF
:102F3000805648B9049838B1502080F31188BFF307
:102F40004F8FBFF36F8FFEE7FFF7DAFCA06BE16BEB
:102F5000884207D3022D05D00498D0B1B8F1000FF4
:102F60001AD01EE02A4651462046FFF7CEF8616A85
:102F700019B104F1240000F09FFA20B13E60BFF3C4
:102F80004F8FBFF36F8FFFF7DBFC012006B0BDE86A
:102F9000F087FFF7D5FC22E06846FFF7AFFD4FF062
:102FA0000108FFF7CDFCFFF72FFEFFF7A9FC94F90E
:102FB0004400401C01D184F8449094F94500401C21
:102FC00001D184F84590FFF7BBFC04A9684600F0E6
:102FD00029F930B12046FFF757FB00F0A5FA002091
:102FE000D4E7FFF78DFCA06BE16B884213D1FFF7AC
:102FF000A7FC04F110000499FFF78EFD2046FFF7AF
:1030000043FB00F091FA00289ED13E60BFF34F8F42
:10301000BFF36F8F98E7FFF793FC2046FFF734FB71
:1030200000F082FA90E7000004ED00E02DE9F0479F
:103030001F4690468946040003D0B9F1000F08D01E
:1030400011E0502080F31188BFF34F8FBFF36F8FD3
:10305000FEE7206C38B1502080F31188BFF34F8F0A
:10306000BFF36F8FFEE7022F0AD1E06B012807D074
:10307000502080F31188BFF34F8FBFF36F8FFEE7AF
:10308000FFF7B6FC5020EFF3118680F31188BFF3F1
:103090004F8FBFF36F8FA06BE16B884206D3022F77
:1030A00004D0002086F31188BDE8F08794F94550DC
:1030B000A06B3A4649462046FFF727F8681C04D023
:1030C0006D1C84F845500120ECE7606A0028FAD0B6
:1030D00004F1240000F0F0F90028F4D0B8F1000F5A
:1030E000F1D00121C8F80010EDE700002DE9F74705
:1030F000002683B08A46040003D0BAF1000F08D03E
:1031000011E0502080F31188BFF34F8FBFF36F8F12
:10311000FEE7206C38B1502080F31188BFF34F8F49
:10312000BFF36F8FFEE700F00FF9DFF8F4804FF088
:1031300000094FF0805748B9059838B1502080F306
:103140001188BFF34F8FBFF36F8FFEE7FFF7D8FBF8
:10315000A56BC5B151462046FEF7C4FF6D1EA563A1
:10316000206950B104F1100000F0A6F928B1C8F8A8
:103170000070BFF34F8FBFF36F8FFFF7E1FB0120AC
:1031800006B0BDE8F087059808B11EB106E0FFF76C
:10319000D7FB27E06846FFF7B1FC0126FFF7D0FB1D
:1031A000FFF732FDFFF7ACFB94F94400401C01D15E
:1031B00084F8449094F94500401C01D184F845906E
:1031C000FFF7BEFB05A9684600F02CF80028204652
:1031D0000AD0FFF759FA00F0A7F92046FFF7E8F800
:1031E0000028B3D00020CBE7FFF7E2F890B104F15C
:1031F00024000599FFF790FC2046FFF745FA00F000
:1032000093F90028A2D1C8F80070BFF34F8FBFF325
:103210006F8F9BE72046FFF737FA00F085F995E7B7
:1032200004ED00E02DE9F0410C46050011D0C4B1D9
:10323000FFF766FB174BDA686E682068911B471C26
:1032400017D02F681B6A9F4219D0964217D80124C5
:1032500010E0502080F31188BFF34F8FBFF36F8FC2
:10326000FEE7502080F31188BFF34F8FBFF36F8FBD
:10327000FEE70024FFF764FB2046BDE8F0818842AA
:1032800005D9401A20602846FFF738FCF1E70020F6
:103290002060DCE71C0000202DE9FF5F8346DDE9AC
:1032A0000E87994616468A469000FFF723FA0500D6
:1032B0001CD05C20FFF71EFA040014D00020256308
:1032C00084F85900CDE90240CDE900874B463246EB
:1032D00051465846FEF7D2FF2046FEF76FFE01200A
:1032E00004B0BDE8F09F2846FFF73EFB4FF0FF30EB
:1032F000F6E7F0B585B0DDE90B640A9DA6B1DCB157
:103300005C2700972663022684F85960002604AFE4
:10331000CDE90246CDE90057FEF7B0FF2046FEF7A3
:103320004DFE049805B0F0BD502080F31188BFF326
:103330004F8FBFF36F8FFEE7502080F31188BFF3EC
:103340004F8FBFF36F8FFEE70548416919B1006BDE
:1033500018B100207047012070470220704700001C
:103360001C0000200148C068704700001C000020BD
:103370002DE9F0412E4C0027206B28B1A069401C9C
:10338000A0613846BDE8F081E668761CE66013D19E
:10339000606B006838B1502080F31188BFF34F8F05
:1033A000BFF36F8FFEE7606BA16B6163A063206A60
:1033B000401C2062FFF7E8F8A06ADFF878808642B8
:1033C00009D3606B0068A0B1606BC068C5686868AD
:1033D000864211D2A0622068C06A00EB800158F8D2
:1033E0002100012800D90127E0690028C9D0012760
:1033F000C7E74FF0FF30EDE7281DFFF7FFF9A86A98
:1034000018B105F11800FFF7F9F9E86A2169884257
:1034100000D9206100EB800108EB8100291DFFF736
:1034200063FAE86A2168C96A8842CAD30127C8E7F3
:103430001C0000209001002070B504004FF0000136
:1034400033D01B4D2868844207D0502080F3118868
:10345000BFF34F8FBFF36F8FFEE7206D38B1401E73
:103460002065E36CE26A9A421FD040B11DE0502013
:1034700080F31188BFF34F8FBFF36F8FFEE7201DDE
:10348000FFF7BCF9E06CE062C0F13800A061E06ACF
:103490002969884200D92861064900EB800001EBC8
:1034A0008000211DFFF720FA0121084670BD0000B1
:1034B0001C0000209001002070B5C068C46854B1A1
:1034C00004F118000646FFF799F9144D286B50B126
:1034D0003146134815E0502080F31188BFF34F8F19
:1034E000BFF36F8FFEE7201DFFF788F9E06A2969B7
:1034F000884200D928610B4900EB800001EB800075
:10350000211DFFF7F1F9E06A2968C96A884202D9EA
:103510000120E86170BD002070BD00001C0000208B
:1035200018060020900100202DE9F0472C4D0024C2
:103530002746286B38B1FFF7E3F9286B401E286354
:10354000286B40B146E0502080F31188BFF34F8FC5
:10355000BFF36F8FFEE7A968224E0120D1B3A6F515
:10356000916980463068E0B1F068C46804F11800E1
:10357000FFF744F9201DFFF741F9E06A2969884205
:1035800000D9286100EB800109EB8100211DFFF7C4
:10359000ABF9E06A2968C96A8842E3D3C5F81C80A0
:1035A000E0E70CB1FEF7F0FFAC694CB14FEA08065A
:1035B000FFF7DEFE00B1EE61641EF9D10020A861C4
:1035C000E86938B10849012738070860BFF34F8F11
:1035D000BFF36F8FFFF7B4F93846BDE8F0870000FE
:1035E0001C0000201806002004ED00E010B586B095
:1035F000FEF74CFD114C2068B8B1002003900490F8
:1036000005AA04A903A8FFF73DF9DDE9032102207B
:103610008DE8070000230AA10B48059AFFF769FE11
:10362000606010B106B0012010BD502080F31188F9
:10363000BFF34F8FBFF36F8FFEE7000058000020ED
:10364000546D722053766300652600082DE9FF4112
:103650001E46134602000A9D4FF0000016D0144C7F
:103660002768002F0FD0CDE900130292062917DA40
:10367000FFF76AFE02284FF000030FD000226946D0
:103680002068FFF723FC04B0BDE8F081502080F3F0
:103690001188BFF34F8FBFF36F8FFEE72A46EEE727
:1036A0000023324669463846FFF7C0FCEBE70000CE
:1036B000580000202C370008000000000000000027
:1036C00000000000000000000002000020000000D8
:1036D0000000000000000000443700080000000067
:1036E00000000000000000000000000000020000D8
:1036F000180000000000000000000000383700083B
:1037000000000000000000000000000000000000B9
:10371000000000000000000000000000010203049F
:103720000607080900000000010203047461736BBE
:103730005F53454E44000000544553545F51554576
:10374000554500007461736B5F52454345495645CA
:10375000000000007437000800000020A0000000F6
:103760005C1C000814380008A0000020884D0000F0
:103770006C1C0008000000000000000000000000B9
:103780000100000010000000000000000024F40010
:103790000000000000000000000000000000000029
:1037A0000000000000000000000000000000000019
:1037B0000000000000000000000000000000000009
:1037C00000000000000000000000000000000000F9
:1037D00000000000000000000000000000000000E9
:1037E00000000000000000000000000000000000D9
:1037F00000000000000000000000000000000000C9
:103800000000000000000000AAAAAAAA0000000010
:0438100000000000B4
:040000050800018965
:00000001FF
